{
  "_format": "hh-sol-artifact-1",
  "contractName": "LostHopeSocietyNft",
  "sourceName": "contracts/LostHopeSocietyNft.sol",
  "abi": [
    {
      "inputs": [
        {
          "internalType": "uint256",
          "name": "_maxNumberOfWhitelistedAddresses",
          "type": "uint256"
        },
        {
          "internalType": "uint256",
          "name": "_whitelistTimePeriod",
          "type": "uint256"
        },
        {
          "internalType": "uint256",
          "name": "_floorPrice",
          "type": "uint256"
        }
      ],
      "stateMutability": "nonpayable",
      "type": "constructor"
    },
    {
      "inputs": [],
      "name": "LostHopeSocietyNft__ContentAlreadyOwned",
      "type": "error"
    },
    {
      "inputs": [],
      "name": "LostHopeSocietyNft__Only1000NftsInThisCollection",
      "type": "error"
    },
    {
      "inputs": [],
      "name": "LostHopeSocietyNft__SenderAlreadyWhitelisted",
      "type": "error"
    },
    {
      "inputs": [],
      "name": "LostHopeSocietyNft__WhitelistLimitExceeded",
      "type": "error"
    },
    {
      "inputs": [],
      "name": "LostHopeSocietyNft__YouBetterPayUpMore",
      "type": "error"
    },
    {
      "inputs": [],
      "name": "LostHopeSocietyNft__YouMustBeWhitelisted",
      "type": "error"
    },
    {
      "anonymous": false,
      "inputs": [
        {
          "indexed": true,
          "internalType": "address",
          "name": "owner",
          "type": "address"
        },
        {
          "indexed": true,
          "internalType": "address",
          "name": "approved",
          "type": "address"
        },
        {
          "indexed": true,
          "internalType": "uint256",
          "name": "tokenId",
          "type": "uint256"
        }
      ],
      "name": "Approval",
      "type": "event"
    },
    {
      "anonymous": false,
      "inputs": [
        {
          "indexed": true,
          "internalType": "address",
          "name": "owner",
          "type": "address"
        },
        {
          "indexed": true,
          "internalType": "address",
          "name": "operator",
          "type": "address"
        },
        {
          "indexed": false,
          "internalType": "bool",
          "name": "approved",
          "type": "bool"
        }
      ],
      "name": "ApprovalForAll",
      "type": "event"
    },
    {
      "anonymous": false,
      "inputs": [
        {
          "indexed": true,
          "internalType": "address",
          "name": "previousOwner",
          "type": "address"
        },
        {
          "indexed": true,
          "internalType": "address",
          "name": "newOwner",
          "type": "address"
        }
      ],
      "name": "OwnershipTransferred",
      "type": "event"
    },
    {
      "anonymous": false,
      "inputs": [
        {
          "indexed": true,
          "internalType": "address",
          "name": "from",
          "type": "address"
        },
        {
          "indexed": true,
          "internalType": "address",
          "name": "to",
          "type": "address"
        },
        {
          "indexed": true,
          "internalType": "uint256",
          "name": "tokenId",
          "type": "uint256"
        }
      ],
      "name": "Transfer",
      "type": "event"
    },
    {
      "inputs": [
        {
          "internalType": "address",
          "name": "_addressToWhiteList",
          "type": "address"
        }
      ],
      "name": "addUserToWhitelist",
      "outputs": [],
      "stateMutability": "nonpayable",
      "type": "function"
    },
    {
      "inputs": [
        {
          "internalType": "address",
          "name": "to",
          "type": "address"
        },
        {
          "internalType": "uint256",
          "name": "tokenId",
          "type": "uint256"
        }
      ],
      "name": "approve",
      "outputs": [],
      "stateMutability": "nonpayable",
      "type": "function"
    },
    {
      "inputs": [
        {
          "internalType": "address",
          "name": "owner",
          "type": "address"
        }
      ],
      "name": "balanceOf",
      "outputs": [
        {
          "internalType": "uint256",
          "name": "",
          "type": "uint256"
        }
      ],
      "stateMutability": "view",
      "type": "function"
    },
    {
      "inputs": [
        {
          "internalType": "string",
          "name": "",
          "type": "string"
        }
      ],
      "name": "existingURIs",
      "outputs": [
        {
          "internalType": "uint8",
          "name": "",
          "type": "uint8"
        }
      ],
      "stateMutability": "view",
      "type": "function"
    },
    {
      "inputs": [],
      "name": "floorPrice",
      "outputs": [
        {
          "internalType": "uint256",
          "name": "",
          "type": "uint256"
        }
      ],
      "stateMutability": "view",
      "type": "function"
    },
    {
      "inputs": [
        {
          "internalType": "uint256",
          "name": "tokenId",
          "type": "uint256"
        }
      ],
      "name": "getApproved",
      "outputs": [
        {
          "internalType": "address",
          "name": "",
          "type": "address"
        }
      ],
      "stateMutability": "view",
      "type": "function"
    },
    {
      "inputs": [
        {
          "internalType": "address",
          "name": "owner",
          "type": "address"
        },
        {
          "internalType": "address",
          "name": "operator",
          "type": "address"
        }
      ],
      "name": "isApprovedForAll",
      "outputs": [
        {
          "internalType": "bool",
          "name": "",
          "type": "bool"
        }
      ],
      "stateMutability": "view",
      "type": "function"
    },
    {
      "inputs": [
        {
          "internalType": "string",
          "name": "_uri",
          "type": "string"
        }
      ],
      "name": "isContentOwned",
      "outputs": [
        {
          "internalType": "bool",
          "name": "",
          "type": "bool"
        }
      ],
      "stateMutability": "view",
      "type": "function"
    },
    {
      "inputs": [],
      "name": "maxNumberOfWhitelistedAddresses",
      "outputs": [
        {
          "internalType": "uint256",
          "name": "",
          "type": "uint256"
        }
      ],
      "stateMutability": "view",
      "type": "function"
    },
    {
      "inputs": [
        {
          "internalType": "string",
          "name": "_tokenURI",
          "type": "string"
        }
      ],
      "name": "mint",
      "outputs": [],
      "stateMutability": "payable",
      "type": "function"
    },
    {
      "inputs": [],
      "name": "name",
      "outputs": [
        {
          "internalType": "string",
          "name": "",
          "type": "string"
        }
      ],
      "stateMutability": "view",
      "type": "function"
    },
    {
      "inputs": [],
      "name": "numberOfAddressesWhitelisted",
      "outputs": [
        {
          "internalType": "uint256",
          "name": "",
          "type": "uint256"
        }
      ],
      "stateMutability": "view",
      "type": "function"
    },
    {
      "inputs": [],
      "name": "owner",
      "outputs": [
        {
          "internalType": "address",
          "name": "",
          "type": "address"
        }
      ],
      "stateMutability": "view",
      "type": "function"
    },
    {
      "inputs": [
        {
          "internalType": "uint256",
          "name": "tokenId",
          "type": "uint256"
        }
      ],
      "name": "ownerOf",
      "outputs": [
        {
          "internalType": "address",
          "name": "",
          "type": "address"
        }
      ],
      "stateMutability": "view",
      "type": "function"
    },
    {
      "inputs": [],
      "name": "renounceOwnership",
      "outputs": [],
      "stateMutability": "nonpayable",
      "type": "function"
    },
    {
      "inputs": [],
      "name": "returnTokenCounter",
      "outputs": [
        {
          "internalType": "uint256",
          "name": "",
          "type": "uint256"
        }
      ],
      "stateMutability": "view",
      "type": "function"
    },
    {
      "inputs": [
        {
          "internalType": "address",
          "name": "from",
          "type": "address"
        },
        {
          "internalType": "address",
          "name": "to",
          "type": "address"
        },
        {
          "internalType": "uint256",
          "name": "tokenId",
          "type": "uint256"
        }
      ],
      "name": "safeTransferFrom",
      "outputs": [],
      "stateMutability": "nonpayable",
      "type": "function"
    },
    {
      "inputs": [
        {
          "internalType": "address",
          "name": "from",
          "type": "address"
        },
        {
          "internalType": "address",
          "name": "to",
          "type": "address"
        },
        {
          "internalType": "uint256",
          "name": "tokenId",
          "type": "uint256"
        },
        {
          "internalType": "bytes",
          "name": "data",
          "type": "bytes"
        }
      ],
      "name": "safeTransferFrom",
      "outputs": [],
      "stateMutability": "nonpayable",
      "type": "function"
    },
    {
      "inputs": [
        {
          "internalType": "address",
          "name": "operator",
          "type": "address"
        },
        {
          "internalType": "bool",
          "name": "approved",
          "type": "bool"
        }
      ],
      "name": "setApprovalForAll",
      "outputs": [],
      "stateMutability": "nonpayable",
      "type": "function"
    },
    {
      "inputs": [
        {
          "internalType": "bytes4",
          "name": "interfaceId",
          "type": "bytes4"
        }
      ],
      "name": "supportsInterface",
      "outputs": [
        {
          "internalType": "bool",
          "name": "",
          "type": "bool"
        }
      ],
      "stateMutability": "view",
      "type": "function"
    },
    {
      "inputs": [],
      "name": "symbol",
      "outputs": [
        {
          "internalType": "string",
          "name": "",
          "type": "string"
        }
      ],
      "stateMutability": "view",
      "type": "function"
    },
    {
      "inputs": [],
      "name": "tokenCounter",
      "outputs": [
        {
          "internalType": "uint256",
          "name": "",
          "type": "uint256"
        }
      ],
      "stateMutability": "view",
      "type": "function"
    },
    {
      "inputs": [
        {
          "internalType": "uint256",
          "name": "tokenId",
          "type": "uint256"
        }
      ],
      "name": "tokenURI",
      "outputs": [
        {
          "internalType": "string",
          "name": "",
          "type": "string"
        }
      ],
      "stateMutability": "view",
      "type": "function"
    },
    {
      "inputs": [
        {
          "internalType": "address",
          "name": "from",
          "type": "address"
        },
        {
          "internalType": "address",
          "name": "to",
          "type": "address"
        },
        {
          "internalType": "uint256",
          "name": "tokenId",
          "type": "uint256"
        }
      ],
      "name": "transferFrom",
      "outputs": [],
      "stateMutability": "nonpayable",
      "type": "function"
    },
    {
      "inputs": [
        {
          "internalType": "address",
          "name": "newOwner",
          "type": "address"
        }
      ],
      "name": "transferOwnership",
      "outputs": [],
      "stateMutability": "nonpayable",
      "type": "function"
    },
    {
      "inputs": [],
      "name": "whitelistEndTime",
      "outputs": [
        {
          "internalType": "uint256",
          "name": "",
          "type": "uint256"
        }
      ],
      "stateMutability": "view",
      "type": "function"
    },
    {
      "inputs": [
        {
          "internalType": "address",
          "name": "",
          "type": "address"
        }
      ],
      "name": "whitelistedAddresses",
      "outputs": [
        {
          "internalType": "bool",
          "name": "",
          "type": "bool"
        }
      ],
      "stateMutability": "view",
      "type": "function"
    },
    {
      "inputs": [],
      "name": "withdrawAllFunds",
      "outputs": [],
      "stateMutability": "nonpayable",
      "type": "function"
    }
  ],
  "bytecode": "0x60e06040523480156200001157600080fd5b5060405162003945380380620039458339818101604052810190620000379190620002eb565b6040518060400160405280601281526020017f4c6f7374486f7065536f63696574794e667400000000000000000000000000008152506040518060400160405280600381526020017f4c485300000000000000000000000000000000000000000000000000000000008152508160009080519060200190620000bb929190620001fb565b508060019080519060200190620000d4929190620001fb565b505050620000f7620000eb6200012d60201b60201c565b6200013560201b60201c565b60006008819055508260808181525050428262000115919062000376565b60a081815250508060c0818152505050505062000438565b600033905090565b6000600760009054906101000a900473ffffffffffffffffffffffffffffffffffffffff16905081600760006101000a81548173ffffffffffffffffffffffffffffffffffffffff021916908373ffffffffffffffffffffffffffffffffffffffff1602179055508173ffffffffffffffffffffffffffffffffffffffff168173ffffffffffffffffffffffffffffffffffffffff167f8be0079c531659141344cd1fd0a4f28419497f9722a3daafe3b4186f6b6457e060405160405180910390a35050565b828054620002099062000402565b90600052602060002090601f0160209004810192826200022d576000855562000279565b82601f106200024857805160ff191683800117855562000279565b8280016001018555821562000279579182015b82811115620002785782518255916020019190600101906200025b565b5b5090506200028891906200028c565b5090565b5b80821115620002a75760008160009055506001016200028d565b5090565b600080fd5b6000819050919050565b620002c581620002b0565b8114620002d157600080fd5b50565b600081519050620002e581620002ba565b92915050565b600080600060608486031215620003075762000306620002ab565b5b60006200031786828701620002d4565b93505060206200032a86828701620002d4565b92505060406200033d86828701620002d4565b9150509250925092565b7f4e487b7100000000000000000000000000000000000000000000000000000000600052601160045260246000fd5b60006200038382620002b0565b91506200039083620002b0565b9250827fffffffffffffffffffffffffffffffffffffffffffffffffffffffffffffffff03821115620003c857620003c762000347565b5b828201905092915050565b7f4e487b7100000000000000000000000000000000000000000000000000000000600052602260045260246000fd5b600060028204905060018216806200041b57607f821691505b60208210811415620004325762000431620003d3565b5b50919050565b60805160a05160c0516134c86200047d60003960008181610d9a015261116a01526000818161104a01526112c8015260008181610ca10152610f0d01526134c86000f3fe6080604052600436106101b75760003560e01c80639363c812116100ec578063c87b56dd1161008a578063e985e9c511610064578063e985e9c5146105ff578063ebdfd7221461063c578063f2fde38b14610667578063f37971df14610690576101b7565b8063c87b56dd1461057b578063d082e381146105b8578063d85d3d27146105e3576101b7565b80639fe6d888116100c65780639fe6d888146104d3578063a22cb465146104fe578063b88d4fde14610527578063ba43654714610550576101b7565b80639363c8121461044057806395d89b411461046b5780639f1cabc614610496576101b7565b806349649fbf11610159578063715018a611610133578063715018a6146103aa57806372353033146103c1578063747b8050146103ec5780638da5cb5b14610415576101b7565b806349649fbf146103195780636352211e1461033057806370a082311461036d576101b7565b8063081812fc11610195578063081812fc14610261578063095ea7b31461029e57806323b872dd146102c757806342842e0e146102f0576101b7565b806301ffc9a7146101bc57806306c933d8146101f957806306fdde0314610236575b600080fd5b3480156101c857600080fd5b506101e360048036038101906101de919061235f565b6106cd565b6040516101f091906123a7565b60405180910390f35b34801561020557600080fd5b50610220600480360381019061021b9190612420565b6107af565b60405161022d91906123a7565b60405180910390f35b34801561024257600080fd5b5061024b6107cf565b60405161025891906124e6565b60405180910390f35b34801561026d57600080fd5b506102886004803603810190610283919061253e565b610861565b604051610295919061257a565b60405180910390f35b3480156102aa57600080fd5b506102c560048036038101906102c09190612595565b6108a7565b005b3480156102d357600080fd5b506102ee60048036038101906102e991906125d5565b6109bf565b005b3480156102fc57600080fd5b50610317600480360381019061031291906125d5565b610a1f565b005b34801561032557600080fd5b5061032e610a3f565b005b34801561033c57600080fd5b506103576004803603810190610352919061253e565b610a90565b604051610364919061257a565b60405180910390f35b34801561037957600080fd5b50610394600480360381019061038f9190612420565b610b42565b6040516103a19190612637565b60405180910390f35b3480156103b657600080fd5b506103bf610bfa565b005b3480156103cd57600080fd5b506103d6610c0e565b6040516103e39190612637565b60405180910390f35b3480156103f857600080fd5b50610413600480360381019061040e9190612420565b610c14565b005b34801561042157600080fd5b5061042a610d6e565b604051610437919061257a565b60405180910390f35b34801561044c57600080fd5b50610455610d98565b6040516104629190612637565b60405180910390f35b34801561047757600080fd5b50610480610dbc565b60405161048d91906124e6565b60405180910390f35b3480156104a257600080fd5b506104bd60048036038101906104b89190612787565b610e4e565b6040516104ca91906123a7565b60405180910390f35b3480156104df57600080fd5b506104e8610e89565b6040516104f59190612637565b60405180910390f35b34801561050a57600080fd5b50610525600480360381019061052091906127fc565b610e93565b005b34801561053357600080fd5b5061054e600480360381019061054991906128dd565b610ea9565b005b34801561055c57600080fd5b50610565610f0b565b6040516105729190612637565b60405180910390f35b34801561058757600080fd5b506105a2600480360381019061059d919061253e565b610f2f565b6040516105af91906124e6565b60405180910390f35b3480156105c457600080fd5b506105cd611042565b6040516105da9190612637565b60405180910390f35b6105fd60048036038101906105f89190612787565b611048565b005b34801561060b57600080fd5b5061062660048036038101906106219190612960565b611232565b60405161063391906123a7565b60405180910390f35b34801561064857600080fd5b506106516112c6565b60405161065e9190612637565b60405180910390f35b34801561067357600080fd5b5061068e60048036038101906106899190612420565b6112ea565b005b34801561069c57600080fd5b506106b760048036038101906106b29190612787565b61136e565b6040516106c491906129bc565b60405180910390f35b60007f80ac58cd000000000000000000000000000000000000000000000000000000007bffffffffffffffffffffffffffffffffffffffffffffffffffffffff1916827bffffffffffffffffffffffffffffffffffffffffffffffffffffffff1916148061079857507f5b5e139f000000000000000000000000000000000000000000000000000000007bffffffffffffffffffffffffffffffffffffffffffffffffffffffff1916827bffffffffffffffffffffffffffffffffffffffffffffffffffffffff1916145b806107a857506107a7826113a4565b5b9050919050565b600b6020528060005260406000206000915054906101000a900460ff1681565b6060600080546107de90612a06565b80601f016020809104026020016040519081016040528092919081815260200182805461080a90612a06565b80156108575780601f1061082c57610100808354040283529160200191610857565b820191906000526020600020905b81548152906001019060200180831161083a57829003601f168201915b5050505050905090565b600061086c8261140e565b6004600083815260200190815260200160002060009054906101000a900473ffffffffffffffffffffffffffffffffffffffff169050919050565b60006108b282610a90565b90508073ffffffffffffffffffffffffffffffffffffffff168373ffffffffffffffffffffffffffffffffffffffff161415610923576040517f08c379a000000000000000000000000000000000000000000000000000000000815260040161091a90612aaa565b60405180910390fd5b8073ffffffffffffffffffffffffffffffffffffffff16610942611459565b73ffffffffffffffffffffffffffffffffffffffff16148061097157506109708161096b611459565b611232565b5b6109b0576040517f08c379a00000000000000000000000000000000000000000000000000000000081526004016109a790612b3c565b60405180910390fd5b6109ba8383611461565b505050565b6109d06109ca611459565b8261151a565b610a0f576040517f08c379a0000000000000000000000000000000000000000000000000000000008152600401610a0690612bce565b60405180910390fd5b610a1a8383836115af565b505050565b610a3a83838360405180602001604052806000815250610ea9565b505050565b610a47611816565b3373ffffffffffffffffffffffffffffffffffffffff166108fc479081150290604051600060405180830381858888f19350505050158015610a8d573d6000803e3d6000fd5b50565b6000806002600084815260200190815260200160002060009054906101000a900473ffffffffffffffffffffffffffffffffffffffff169050600073ffffffffffffffffffffffffffffffffffffffff168173ffffffffffffffffffffffffffffffffffffffff161415610b39576040517f08c379a0000000000000000000000000000000000000000000000000000000008152600401610b3090612c3a565b60405180910390fd5b80915050919050565b60008073ffffffffffffffffffffffffffffffffffffffff168273ffffffffffffffffffffffffffffffffffffffff161415610bb3576040517f08c379a0000000000000000000000000000000000000000000000000000000008152600401610baa90612ccc565b60405180910390fd5b600360008373ffffffffffffffffffffffffffffffffffffffff1673ffffffffffffffffffffffffffffffffffffffff168152602001908152602001600020549050919050565b610c02611816565b610c0c6000611894565b565b60095481565b610c1c611816565b600b60008273ffffffffffffffffffffffffffffffffffffffff1673ffffffffffffffffffffffffffffffffffffffff16815260200190815260200160002060009054906101000a900460ff16610c9f576040517f1f60653c00000000000000000000000000000000000000000000000000000000815260040160405180910390fd5b7f00000000000000000000000000000000000000000000000000000000000000006009541115610cfb576040517f9be1ecb800000000000000000000000000000000000000000000000000000000815260040160405180910390fd5b6001600b60008373ffffffffffffffffffffffffffffffffffffffff1673ffffffffffffffffffffffffffffffffffffffff16815260200190815260200160002060006101000a81548160ff02191690831515021790555060096000815480929190610d6690612d1b565b919050555050565b6000600760009054906101000a900473ffffffffffffffffffffffffffffffffffffffff16905090565b7f000000000000000000000000000000000000000000000000000000000000000081565b606060018054610dcb90612a06565b80601f0160208091040260200160405190810160405280929190818152602001828054610df790612a06565b8015610e445780601f10610e1957610100808354040283529160200191610e44565b820191906000526020600020905b815481529060010190602001808311610e2757829003601f168201915b5050505050905090565b60006001600a83604051610e629190612da0565b908152602001604051809103902060009054906101000a900460ff1660ff16149050919050565b6000600854905090565b610ea5610e9e611459565b838361195a565b5050565b610eba610eb4611459565b8361151a565b610ef9576040517f08c379a0000000000000000000000000000000000000000000000000000000008152600401610ef090612bce565b60405180910390fd5b610f0584848484611ac7565b50505050565b7f000000000000000000000000000000000000000000000000000000000000000081565b6060610f3a8261140e565b6000600660008481526020019081526020016000208054610f5a90612a06565b80601f0160208091040260200160405190810160405280929190818152602001828054610f8690612a06565b8015610fd35780601f10610fa857610100808354040283529160200191610fd3565b820191906000526020600020905b815481529060010190602001808311610fb657829003601f168201915b505050505090506000610fe4611b23565b9050600081511415610ffa57819250505061103d565b60008251111561102f578082604051602001611017929190612db7565b6040516020818303038152906040529250505061103d565b61103884611b3a565b925050505b919050565b60085481565b7f00000000000000000000000000000000000000000000000000000000000000004211801561107d575061107b33611ba2565b155b801561108b575060fa600854115b156110c2576040517fc8f85b8e00000000000000000000000000000000000000000000000000000000815260040160405180910390fd5b6103e8600854106110ff576040517fe570051800000000000000000000000000000000000000000000000000000000815260040160405180910390fd5b6001600a826040516111119190612da0565b908152602001604051809103902060009054906101000a900460ff1660ff161415611168576040517ffaf08f0700000000000000000000000000000000000000000000000000000000815260040160405180910390fd5b7f000000000000000000000000000000000000000000000000000000000000000034106111c1576040517fb276173000000000000000000000000000000000000000000000000000000000815260040160405180910390fd5b600060085490506111d23382611bf8565b6111dc8183611c16565b6001600a836040516111ee9190612da0565b908152602001604051809103902060006101000a81548160ff021916908360ff1602179055506001600860008282546112279190612ddb565b925050819055505050565b6000600560008473ffffffffffffffffffffffffffffffffffffffff1673ffffffffffffffffffffffffffffffffffffffff16815260200190815260200160002060008373ffffffffffffffffffffffffffffffffffffffff1673ffffffffffffffffffffffffffffffffffffffff16815260200190815260200160002060009054906101000a900460ff16905092915050565b7f000000000000000000000000000000000000000000000000000000000000000081565b6112f2611816565b600073ffffffffffffffffffffffffffffffffffffffff168173ffffffffffffffffffffffffffffffffffffffff161415611362576040517f08c379a000000000000000000000000000000000000000000000000000000000815260040161135990612ea3565b60405180910390fd5b61136b81611894565b50565b600a818051602081018201805184825260208301602085012081835280955050505050506000915054906101000a900460ff1681565b60007f01ffc9a7000000000000000000000000000000000000000000000000000000007bffffffffffffffffffffffffffffffffffffffffffffffffffffffff1916827bffffffffffffffffffffffffffffffffffffffffffffffffffffffff1916149050919050565b61141781611c8a565b611456576040517f08c379a000000000000000000000000000000000000000000000000000000000815260040161144d90612c3a565b60405180910390fd5b50565b600033905090565b816004600083815260200190815260200160002060006101000a81548173ffffffffffffffffffffffffffffffffffffffff021916908373ffffffffffffffffffffffffffffffffffffffff160217905550808273ffffffffffffffffffffffffffffffffffffffff166114d483610a90565b73ffffffffffffffffffffffffffffffffffffffff167f8c5be1e5ebec7d5bd14f71427d1e84f3dd0314c0f7b2291e5b200ac8c7c3b92560405160405180910390a45050565b60008061152683610a90565b90508073ffffffffffffffffffffffffffffffffffffffff168473ffffffffffffffffffffffffffffffffffffffff16148061156857506115678185611232565b5b806115a657508373ffffffffffffffffffffffffffffffffffffffff1661158e84610861565b73ffffffffffffffffffffffffffffffffffffffff16145b91505092915050565b8273ffffffffffffffffffffffffffffffffffffffff166115cf82610a90565b73ffffffffffffffffffffffffffffffffffffffff1614611625576040517f08c379a000000000000000000000000000000000000000000000000000000000815260040161161c90612f35565b60405180910390fd5b600073ffffffffffffffffffffffffffffffffffffffff168273ffffffffffffffffffffffffffffffffffffffff161415611695576040517f08c379a000000000000000000000000000000000000000000000000000000000815260040161168c90612fc7565b60405180910390fd5b6116a0838383611cf6565b6116ab600082611461565b6001600360008573ffffffffffffffffffffffffffffffffffffffff1673ffffffffffffffffffffffffffffffffffffffff16815260200190815260200160002060008282546116fb9190612fe7565b925050819055506001600360008473ffffffffffffffffffffffffffffffffffffffff1673ffffffffffffffffffffffffffffffffffffffff16815260200190815260200160002060008282546117529190612ddb565b92505081905550816002600083815260200190815260200160002060006101000a81548173ffffffffffffffffffffffffffffffffffffffff021916908373ffffffffffffffffffffffffffffffffffffffff160217905550808273ffffffffffffffffffffffffffffffffffffffff168473ffffffffffffffffffffffffffffffffffffffff167fddf252ad1be2c89b69c2b068fc378daa952ba7f163c4a11628f55a4df523b3ef60405160405180910390a4611811838383611cfb565b505050565b61181e611459565b73ffffffffffffffffffffffffffffffffffffffff1661183c610d6e565b73ffffffffffffffffffffffffffffffffffffffff1614611892576040517f08c379a000000000000000000000000000000000000000000000000000000000815260040161188990613067565b60405180910390fd5b565b6000600760009054906101000a900473ffffffffffffffffffffffffffffffffffffffff16905081600760006101000a81548173ffffffffffffffffffffffffffffffffffffffff021916908373ffffffffffffffffffffffffffffffffffffffff1602179055508173ffffffffffffffffffffffffffffffffffffffff168173ffffffffffffffffffffffffffffffffffffffff167f8be0079c531659141344cd1fd0a4f28419497f9722a3daafe3b4186f6b6457e060405160405180910390a35050565b8173ffffffffffffffffffffffffffffffffffffffff168373ffffffffffffffffffffffffffffffffffffffff1614156119c9576040517f08c379a00000000000000000000000000000000000000000000000000000000081526004016119c0906130d3565b60405180910390fd5b80600560008573ffffffffffffffffffffffffffffffffffffffff1673ffffffffffffffffffffffffffffffffffffffff16815260200190815260200160002060008473ffffffffffffffffffffffffffffffffffffffff1673ffffffffffffffffffffffffffffffffffffffff16815260200190815260200160002060006101000a81548160ff0219169083151502179055508173ffffffffffffffffffffffffffffffffffffffff168373ffffffffffffffffffffffffffffffffffffffff167f17307eab39ab6107e8899845ad3d59bd9653f200f220920489ca2b5937696c3183604051611aba91906123a7565b60405180910390a3505050565b611ad28484846115af565b611ade84848484611d00565b611b1d576040517f08c379a0000000000000000000000000000000000000000000000000000000008152600401611b1490613165565b60405180910390fd5b50505050565b606060405180602001604052806000815250905090565b6060611b458261140e565b6000611b4f611b23565b90506000815111611b6f5760405180602001604052806000815250611b9a565b80611b7984611e97565b604051602001611b8a929190612db7565b6040516020818303038152906040525b915050919050565b6000600b60008373ffffffffffffffffffffffffffffffffffffffff1673ffffffffffffffffffffffffffffffffffffffff16815260200190815260200160002060009054906101000a900460ff169050919050565b611c12828260405180602001604052806000815250611ff8565b5050565b611c1f82611c8a565b611c5e576040517f08c379a0000000000000000000000000000000000000000000000000000000008152600401611c55906131f7565b60405180910390fd5b80600660008481526020019081526020016000209080519060200190611c85929190612250565b505050565b60008073ffffffffffffffffffffffffffffffffffffffff166002600084815260200190815260200160002060009054906101000a900473ffffffffffffffffffffffffffffffffffffffff1673ffffffffffffffffffffffffffffffffffffffff1614159050919050565b505050565b505050565b6000611d218473ffffffffffffffffffffffffffffffffffffffff16612053565b15611e8a578373ffffffffffffffffffffffffffffffffffffffff1663150b7a02611d4a611459565b8786866040518563ffffffff1660e01b8152600401611d6c949392919061326c565b602060405180830381600087803b158015611d8657600080fd5b505af1925050508015611db757506040513d601f19601f82011682018060405250810190611db491906132cd565b60015b611e3a573d8060008114611de7576040519150601f19603f3d011682016040523d82523d6000602084013e611dec565b606091505b50600081511415611e32576040517f08c379a0000000000000000000000000000000000000000000000000000000008152600401611e2990613165565b60405180910390fd5b805181602001fd5b63150b7a0260e01b7bffffffffffffffffffffffffffffffffffffffffffffffffffffffff1916817bffffffffffffffffffffffffffffffffffffffffffffffffffffffff191614915050611e8f565b600190505b949350505050565b60606000821415611edf576040518060400160405280600181526020017f30000000000000000000000000000000000000000000000000000000000000008152509050611ff3565b600082905060005b60008214611f11578080611efa90612d1b565b915050600a82611f0a9190613329565b9150611ee7565b60008167ffffffffffffffff811115611f2d57611f2c61265c565b5b6040519080825280601f01601f191660200182016040528015611f5f5781602001600182028036833780820191505090505b5090505b60008514611fec57600182611f789190612fe7565b9150600a85611f87919061335a565b6030611f939190612ddb565b60f81b818381518110611fa957611fa861338b565b5b60200101907effffffffffffffffffffffffffffffffffffffffffffffffffffffffffffff1916908160001a905350600a85611fe59190613329565b9450611f63565b8093505050505b919050565b6120028383612076565b61200f6000848484611d00565b61204e576040517f08c379a000000000000000000000000000000000000000000000000000000000815260040161204590613165565b60405180910390fd5b505050565b6000808273ffffffffffffffffffffffffffffffffffffffff163b119050919050565b600073ffffffffffffffffffffffffffffffffffffffff168273ffffffffffffffffffffffffffffffffffffffff1614156120e6576040517f08c379a00000000000000000000000000000000000000000000000000000000081526004016120dd90613406565b60405180910390fd5b6120ef81611c8a565b1561212f576040517f08c379a000000000000000000000000000000000000000000000000000000000815260040161212690613472565b60405180910390fd5b61213b60008383611cf6565b6001600360008473ffffffffffffffffffffffffffffffffffffffff1673ffffffffffffffffffffffffffffffffffffffff168152602001908152602001600020600082825461218b9190612ddb565b92505081905550816002600083815260200190815260200160002060006101000a81548173ffffffffffffffffffffffffffffffffffffffff021916908373ffffffffffffffffffffffffffffffffffffffff160217905550808273ffffffffffffffffffffffffffffffffffffffff16600073ffffffffffffffffffffffffffffffffffffffff167fddf252ad1be2c89b69c2b068fc378daa952ba7f163c4a11628f55a4df523b3ef60405160405180910390a461224c60008383611cfb565b5050565b82805461225c90612a06565b90600052602060002090601f01602090048101928261227e57600085556122c5565b82601f1061229757805160ff19168380011785556122c5565b828001600101855582156122c5579182015b828111156122c45782518255916020019190600101906122a9565b5b5090506122d291906122d6565b5090565b5b808211156122ef5760008160009055506001016122d7565b5090565b6000604051905090565b600080fd5b600080fd5b60007fffffffff0000000000000000000000000000000000000000000000000000000082169050919050565b61233c81612307565b811461234757600080fd5b50565b60008135905061235981612333565b92915050565b600060208284031215612375576123746122fd565b5b60006123838482850161234a565b91505092915050565b60008115159050919050565b6123a18161238c565b82525050565b60006020820190506123bc6000830184612398565b92915050565b600073ffffffffffffffffffffffffffffffffffffffff82169050919050565b60006123ed826123c2565b9050919050565b6123fd816123e2565b811461240857600080fd5b50565b60008135905061241a816123f4565b92915050565b600060208284031215612436576124356122fd565b5b60006124448482850161240b565b91505092915050565b600081519050919050565b600082825260208201905092915050565b60005b8381101561248757808201518184015260208101905061246c565b83811115612496576000848401525b50505050565b6000601f19601f8301169050919050565b60006124b88261244d565b6124c28185612458565b93506124d2818560208601612469565b6124db8161249c565b840191505092915050565b6000602082019050818103600083015261250081846124ad565b905092915050565b6000819050919050565b61251b81612508565b811461252657600080fd5b50565b60008135905061253881612512565b92915050565b600060208284031215612554576125536122fd565b5b600061256284828501612529565b91505092915050565b612574816123e2565b82525050565b600060208201905061258f600083018461256b565b92915050565b600080604083850312156125ac576125ab6122fd565b5b60006125ba8582860161240b565b92505060206125cb85828601612529565b9150509250929050565b6000806000606084860312156125ee576125ed6122fd565b5b60006125fc8682870161240b565b935050602061260d8682870161240b565b925050604061261e86828701612529565b9150509250925092565b61263181612508565b82525050565b600060208201905061264c6000830184612628565b92915050565b600080fd5b600080fd5b7f4e487b7100000000000000000000000000000000000000000000000000000000600052604160045260246000fd5b6126948261249c565b810181811067ffffffffffffffff821117156126b3576126b261265c565b5b80604052505050565b60006126c66122f3565b90506126d2828261268b565b919050565b600067ffffffffffffffff8211156126f2576126f161265c565b5b6126fb8261249c565b9050602081019050919050565b82818337600083830152505050565b600061272a612725846126d7565b6126bc565b90508281526020810184848401111561274657612745612657565b5b612751848285612708565b509392505050565b600082601f83011261276e5761276d612652565b5b813561277e848260208601612717565b91505092915050565b60006020828403121561279d5761279c6122fd565b5b600082013567ffffffffffffffff8111156127bb576127ba612302565b5b6127c784828501612759565b91505092915050565b6127d98161238c565b81146127e457600080fd5b50565b6000813590506127f6816127d0565b92915050565b60008060408385031215612813576128126122fd565b5b60006128218582860161240b565b9250506020612832858286016127e7565b9150509250929050565b600067ffffffffffffffff8211156128575761285661265c565b5b6128608261249c565b9050602081019050919050565b600061288061287b8461283c565b6126bc565b90508281526020810184848401111561289c5761289b612657565b5b6128a7848285612708565b509392505050565b600082601f8301126128c4576128c3612652565b5b81356128d484826020860161286d565b91505092915050565b600080600080608085870312156128f7576128f66122fd565b5b60006129058782880161240b565b94505060206129168782880161240b565b935050604061292787828801612529565b925050606085013567ffffffffffffffff81111561294857612947612302565b5b612954878288016128af565b91505092959194509250565b60008060408385031215612977576129766122fd565b5b60006129858582860161240b565b92505060206129968582860161240b565b9150509250929050565b600060ff82169050919050565b6129b6816129a0565b82525050565b60006020820190506129d160008301846129ad565b92915050565b7f4e487b7100000000000000000000000000000000000000000000000000000000600052602260045260246000fd5b60006002820490506001821680612a1e57607f821691505b60208210811415612a3257612a316129d7565b5b50919050565b7f4552433732313a20617070726f76616c20746f2063757272656e74206f776e6560008201527f7200000000000000000000000000000000000000000000000000000000000000602082015250565b6000612a94602183612458565b9150612a9f82612a38565b604082019050919050565b60006020820190508181036000830152612ac381612a87565b9050919050565b7f4552433732313a20617070726f76652063616c6c6572206973206e6f7420746f60008201527f6b656e206f776e6572206e6f7220617070726f76656420666f7220616c6c0000602082015250565b6000612b26603e83612458565b9150612b3182612aca565b604082019050919050565b60006020820190508181036000830152612b5581612b19565b9050919050565b7f4552433732313a2063616c6c6572206973206e6f7420746f6b656e206f776e6560008201527f72206e6f7220617070726f766564000000000000000000000000000000000000602082015250565b6000612bb8602e83612458565b9150612bc382612b5c565b604082019050919050565b60006020820190508181036000830152612be781612bab565b9050919050565b7f4552433732313a20696e76616c696420746f6b656e2049440000000000000000600082015250565b6000612c24601883612458565b9150612c2f82612bee565b602082019050919050565b60006020820190508181036000830152612c5381612c17565b9050919050565b7f4552433732313a2061646472657373207a65726f206973206e6f74206120766160008201527f6c6964206f776e65720000000000000000000000000000000000000000000000602082015250565b6000612cb6602983612458565b9150612cc182612c5a565b604082019050919050565b60006020820190508181036000830152612ce581612ca9565b9050919050565b7f4e487b7100000000000000000000000000000000000000000000000000000000600052601160045260246000fd5b6000612d2682612508565b91507fffffffffffffffffffffffffffffffffffffffffffffffffffffffffffffffff821415612d5957612d58612cec565b5b600182019050919050565b600081905092915050565b6000612d7a8261244d565b612d848185612d64565b9350612d94818560208601612469565b80840191505092915050565b6000612dac8284612d6f565b915081905092915050565b6000612dc38285612d6f565b9150612dcf8284612d6f565b91508190509392505050565b6000612de682612508565b9150612df183612508565b9250827fffffffffffffffffffffffffffffffffffffffffffffffffffffffffffffffff03821115612e2657612e25612cec565b5b828201905092915050565b7f4f776e61626c653a206e6577206f776e657220697320746865207a65726f206160008201527f6464726573730000000000000000000000000000000000000000000000000000602082015250565b6000612e8d602683612458565b9150612e9882612e31565b604082019050919050565b60006020820190508181036000830152612ebc81612e80565b9050919050565b7f4552433732313a207472616e736665722066726f6d20696e636f72726563742060008201527f6f776e6572000000000000000000000000000000000000000000000000000000602082015250565b6000612f1f602583612458565b9150612f2a82612ec3565b604082019050919050565b60006020820190508181036000830152612f4e81612f12565b9050919050565b7f4552433732313a207472616e7366657220746f20746865207a65726f2061646460008201527f7265737300000000000000000000000000000000000000000000000000000000602082015250565b6000612fb1602483612458565b9150612fbc82612f55565b604082019050919050565b60006020820190508181036000830152612fe081612fa4565b9050919050565b6000612ff282612508565b9150612ffd83612508565b9250828210156130105761300f612cec565b5b828203905092915050565b7f4f776e61626c653a2063616c6c6572206973206e6f7420746865206f776e6572600082015250565b6000613051602083612458565b915061305c8261301b565b602082019050919050565b6000602082019050818103600083015261308081613044565b9050919050565b7f4552433732313a20617070726f766520746f2063616c6c657200000000000000600082015250565b60006130bd601983612458565b91506130c882613087565b602082019050919050565b600060208201905081810360008301526130ec816130b0565b9050919050565b7f4552433732313a207472616e7366657220746f206e6f6e20455243373231526560008201527f63656976657220696d706c656d656e7465720000000000000000000000000000602082015250565b600061314f603283612458565b915061315a826130f3565b604082019050919050565b6000602082019050818103600083015261317e81613142565b9050919050565b7f45524337323155524953746f726167653a2055524920736574206f66206e6f6e60008201527f6578697374656e7420746f6b656e000000000000000000000000000000000000602082015250565b60006131e1602e83612458565b91506131ec82613185565b604082019050919050565b60006020820190508181036000830152613210816131d4565b9050919050565b600081519050919050565b600082825260208201905092915050565b600061323e82613217565b6132488185613222565b9350613258818560208601612469565b6132618161249c565b840191505092915050565b6000608082019050613281600083018761256b565b61328e602083018661256b565b61329b6040830185612628565b81810360608301526132ad8184613233565b905095945050505050565b6000815190506132c781612333565b92915050565b6000602082840312156132e3576132e26122fd565b5b60006132f1848285016132b8565b91505092915050565b7f4e487b7100000000000000000000000000000000000000000000000000000000600052601260045260246000fd5b600061333482612508565b915061333f83612508565b92508261334f5761334e6132fa565b5b828204905092915050565b600061336582612508565b915061337083612508565b9250826133805761337f6132fa565b5b828206905092915050565b7f4e487b7100000000000000000000000000000000000000000000000000000000600052603260045260246000fd5b7f4552433732313a206d696e7420746f20746865207a65726f2061646472657373600082015250565b60006133f0602083612458565b91506133fb826133ba565b602082019050919050565b6000602082019050818103600083015261341f816133e3565b9050919050565b7f4552433732313a20746f6b656e20616c7265616479206d696e74656400000000600082015250565b600061345c601c83612458565b915061346782613426565b602082019050919050565b6000602082019050818103600083015261348b8161344f565b905091905056fea264697066735822122020661296a1791d09b94925fbd9577e3b926a49fc40fcdadd7d3e510209b8346264736f6c63430008090033",
  "linkReferences": {},
  "deployedLinkReferences": {}
}